:020000040800F2
:10000000A81A002011020008B3300008CB2C000809
:10001000B1300008490900082D390008000000002F
:10002000000000000000000000000000B7300008E1
:10003000090A000800000000B5300008B9300008C7
:100040002B0200082B0200082B0200082B020008DC
:100050002B0200082B0200080B0A0008110A0008F6
:100060002B0200082B0200082B0200082B020008BC
:100070002B0200082B0200082B0200082B020008AC
:100080002B0200082B020008F50700082B020008CD
:100090002B0200082B0200082B0200082B0200088C
:1000A0002B0200082B0200082B0200082B0200087C
:1000B0002B0200082B020008113100082B02000857
:1000C0002B0200082B0200082B0200082B0200085C
:1000D0002B0200082B0200082B0200082B0200084C
:1000E0002B0200082B0200082B0200082B0200083C
:1000F0002B0200082B0200082B0200082B0200082C
:100100002B0200082B0200082B0200082B0200081B
:100110002B0200082B0200082B0200082B0200080B
:100120004D090008590900082B0200082B0200089D
:100130002B0200082B0200082B0200082B020008EB
:100140002B0200082B0200082B0200082B020008DB
:100150002B0200082B0200082B0200082B020008CB
:100160002B0200082B0200082B0200082B020008BB
:100170002B0200082B0200082B02000800000000E0
:100180002B0200082B0200082B0200082B0200089B
:100190002B0200082B0200082B0200082B0200088B
:1001A0002B0200082B0200082B0200082B0200087B
:1001B0002B0200082B0200082B0200082B0200086B
:1001C0002B0200082B020008000000002B02000890
:1001D0002B0200082B0200082B0200082B0200084B
:1001E0002B0200082B0200082B0200082B0200083B
:1001F0002B0200082B020008DFF810D000F078FA7C
:1002000000F076F80048004795550008A81A00202D
:100210000648804706480047FEE7FEE7FEE7FEE7A0
:10022000FEE7FEE7FEE7FEE7FEE7FEE7BD3000087B
:10023000F90100082DE9F05F0546002092469B4633
:1002400088460646814640241BE0284641464746EC
:10025000224600F082F853465A46C01A914110D304
:1002600011461846224600F069F82D1A67EB01087E
:100270004F4622460120002100F060F817EB0009EC
:100280004E41201EA4F10104DFDC484631462A46D7
:100290004346BDE8F09F00000649074A08685043FE
:1002A00043F2390210440860400870470149086071
:1002B00070470000340000206D4EC641D2B201E00C
:1002C00000F8012B491EFBD270470022F6E710B55B
:1002D00013460A4604461946FFF7F0FF204610BDB4
:1002E000421C10F8011B0029FBD1801A7047000046
:1002F00070B5054C054D03E0206820448047241D5F
:10030000AC42F9D170BD00003459000838590008DA
:1003100030B50B46014600202022012409E021FAD5
:1003200002F59D4205D303FA02F5491B04FA02F5D2
:100330002844151EA2F10102F1DC30BD202A04DBA5
:10034000203A00FA02F1002070479140C2F12003E8
:1003500020FA03F3194390407047202A04DB203A27
:1003600021FA02F00021704721FA02F3D040C2F1D5
:10037000200291400843194670472DE9FE4F804600
:1003800081EA0300C00F0C46009021F0004123F0E9
:100390000045B8EB0200A94105D2404621469046EF
:1003A0001C460B46024623F00040104347D0270D61
:1003B000C7F30A00C3F30A510290401A0190402883
:1003C0006BDAC3F3130040F4801B0098924620B10F
:1003D0000023D2EB030A63EB0B0B01985946C0F1E3
:1003E00040025046FFF7AAFF06460D4650465946C2
:1003F000019A00F08FF910EB08006141002487EAB0
:10040000115284EAE7731A4340D0009A62B3019A0A
:10041000012A4FEA075215DC001B61EB02014FF085
:10042000004202EA0752CDE90042001C41F580116A
:1004300032462B4600F08FF903B0BDE8F08F4046FE
:100440002146F9E7001B61EB0201001C41F5801316
:1004500000185B412018A2F5001747EB030140EAA2
:10046000D570B6196D4111E06D084FEA360645EAC0
:10047000C0754FEA0752001B61EB0201001C41F5F9
:10048000801149084FEA30000019514132462B468D
:1004900003B0BDE8F04F00F04FB9009801224000D2
:1004A0000023D0EB020263EBE073009821464FEA91
:1004B000E074B8EB000061EB0401E9E783F000436E
:1004C0005BE781F0004158E72DE9FE4F81EA030424
:1004D00004F0004421F0004100944FF0000B23F0A1
:1004E000004350EA01045ED052EA03045BD0C3F338
:1004F0000A54C1F30A552C44A4F2F3340194A0FB2E
:100500000254C1F3130141F48011C3F3130343F404
:10051000801301FB024400FB034E840A970A44EA5D
:10052000815447EA8357A4FB076802958D0A05FBAF
:1005300007854FEA932C04FB0C542705029D4FEAD4
:10054000065847EA1637B5EB08056EEB070C870E21
:10055000920E47EA811742EA8312A7FB0201B6EB2B
:100560000B0164EB00042B0D43EA0C335E1844EBE3
:100570001C50DA465146E7FB0201C5F313044FEA6B
:100580000B3343EA14534FEA0432019C43EA060357
:10059000A4F10C040294009CCDE900B400F0DBF857
:1005A00003B0BDE8F08F00200146F9E72DE9F04DDA
:1005B00081EA030404F0004B21F0004514464FF09B
:1005C000000A23F0004150EA050220D054EA01025B
:1005D0001DD0C5F30A570246C5F31303C1F3130038
:1005E000C1F30A5640F4801543F48013A7EB0608C4
:1005F000101BD64608F2FD3873EB050002D308F154
:10060000010801E092185B41B8F1000F03DA002005
:100610000146BDE8F08D00204FF480110646844667
:100620000EE0171B73EB050705D3121B63EB0503E5
:1006300006434CEA010C49084FEA300092185B412E
:1006400050EA0107EDD152EA030012D082EA040019
:1006500083EA0501084305D0101BAB4106D20122F5
:10066000002306E000224FF0004302E06FF0010299
:1006700053101AEB06004CEB085110EB0A0041EB4B
:100680000B01BDE8F04D00F057B8C1F30A52C1F3B9
:10069000130140F2FF3341F480119A4202DA002044
:1006A0000146704740F233439A42A2F2334202DCE1
:1006B0005242FFF752BEFFF741BE000030B5041EA4
:1006C00071F1000404DB4FF00044404264EB01018F
:1006D000141E73F1000405DB1C464FF00043524228
:1006E00063EB0403994208BF904230BD002070477D
:1006F000064C074D06E0E06840F0010394E807006F
:1007000098471034AC42F6D3FFF77AFD145900082D
:1007100034590008202A06DBCB17203A41FA02F0B0
:1007200043EAE07306E041FA02F3D040C2F120024E
:10073000914008431946704710B5141E73F1000428
:1007400008DA401C41F1000192185B411A4301D1C3
:1007500020F0010010BD2DE9F04D92469B4611B1ED
:10076000B1FA81F202E0B0FA80F220329046FFF74F
:10077000E5FD04460F4640EA0A0041EA0B015346F4
:100780005A46084313D0114653EA010019D0C8F164
:1007900040025046FFF7E1FD05460E4650465946D9
:1007A0004246FFF7CBFD084305D0012004E0204678
:1007B0003946BDE8F08D0020054346EAE0762C433B
:1007C00037430A986305E40AA0EB08000022FD0AFB
:1007D00044EA47540A3002D500200146E9E7010502
:1007E00010196941DDE9084500196941BDE8F04D7E
:1007F000A2E70000044810B500F0D6F9BDE81040AB
:10080000024800F0D1B90000141400205C1400204C
:100810004A496FF0706210B5D1F8043323F44033C5
:10082000C1F80433D1F8043344682343C1F80433D6
:1008300001684B6823F480734B60016803694C685E
:1008400044EA03234B6001684B6823F040734B601C
:10085000016884684B6823434B6001688B6823F40C
:1008600000638B600168C4688B6823438B60816A76
:10087000D14201688A6822F070628A6001680DD0F6
:10088000836A8A681A438A6001688A6822F0405243
:100890008A600168C36A8A681A4302E08A6822F0A3
:1008A00040528A6001688A6822F002028A60016808
:1008B00082698B6843EA42028A6090F8201000291E
:1008C000016811D01E4A4B6843F400634B60016815
:1008D0004B6823F460434B600168446A4B6802EB49
:1008E000443213434B6003E04A6822F400624A60DA
:1008F0000168144BCA6A22F47002CA620168848BD0
:10090000CA6A03EB04531A43CA6201688A6822F474
:1009100000728A60016890F830208B6843EA4222B6
:100920008A6001688A6822F480628A60016840698E
:100930008A6842EA8020886010BD000000200140E3
:1009400000E0FFFF0000F0FFFEE70000014800F0BC
:1009500069BB0000A4140020014800F063BB000044
:10096000C415002001681823CAB2103AB2FBF3F292
:10097000054B6FF30901032A9B5CC36500D9091D70
:100980008165084670470000B457000810B58369B8
:100990004FF0C074826A0146002053B1B3F5005F86
:1009A00015D072B1012A0CD0022A0AD0032A09D12B
:1009B00004E01AB1012A06D0022A03D1C96AC9018A
:1009C00000D5012010BDC96AA142FAD010BD002A8D
:1009D000F7D0012AF2D0022AF3D0032AF3D010BDB7
:1009E00030B50468256825F48025256004686360B7
:1009F0008368402B036803D099600068C26030BDF3
:100A00009A600068C16030BD7047012000F076BD7B
:100A1000022000F073BD704770470000F8B5002554
:100A2000009590F83C20012A18D0012280F83C2043
:100A30000A6807234E4C0668092A1AD90A3A02EBBB
:100A40004207F268BB409A43F2600E680268A64211
:100A500006D10B7AD66846EA036308E00220F8BDA7
:100A60000A3E8B68D76806EB4606B3403B43D3602B
:100A70000EE002EB42073269BB409A4332610368E1
:100A80000E788A681F6906EB4606B2403A431A613F
:100A90004A681F23072A13D20668521E02EB8207F8
:100AA000726BBB409A43726303680E790A88761EA4
:100AB0005F6B92B206EB8606B2403A435A6327E078
:100AC00006680D2A12D2D21F02EB8207326BBB409E
:100AD0009A43326302680E790B88F61F176B9BB23C
:100AE00006EB8606B3403B43136311E00D3A02EB7D
:100AF0008207F26ABB409A43F26202680E790B8861
:100B00000D3ED76A9BB206EB8606B3403B43D362E9
:100B1000184A0368934208D10B68122B05D1D2F80A
:100B2000043343F48003C2F80433036893421AD1B8
:100B30000B68A34201D0112B15D1D2F8043343F432
:100B40000003C2F804330968A1420CD10A490B4AD8
:100B50000968B1FBF2F101EB8101490000E0491E97
:100B600000910029FBD180F83C500020F8BD000026
:100B700012000010002001403000002040420F0011
:100B800010B5054A0168914205D100F00AF803F05A
:100B9000B9FB0249C86010BD0020014000000020E0
:100BA00070470068C06C704770B504460068016803
:100BB0004268C1F34001C2F3401251B34AB3216C01
:100BC000C90603D4216C41F400712164816811F0DD
:100BD000405F17D1A169A9B9C16A11F4700F02D0A1
:100BE000816849050ED4416821F020014160206CE4
:100BF00020F480702064206CC00403D4206C40F08A
:100C0000010020642046FFF7BBFF21686FF012004F
:100C10000860206801684268C1F38001C2F3C01215
:100C200089B382B3216CC90603D4216C41F400510D
:100C30002164816811F4401F1ED1816B11F4401FA3
:100C400002D08168490517D44168490514D48168E8
:100C500011F0405F10D1A16971B9416821F08001A4
:100C60004160206C20F480502064206CC00503D4C7
:100C7000206C40F0010020642046FFF7CDFE216883
:100C80006FF00C00086020680168436811F0010FE4
:100C9000C3F380110ED069B10068C0070AD0206C80
:100CA00040F480302064204600F046F821686FF060
:100CB00001000860206801684268C1F34011002902
:100CC000C2F380620DD0002A0BD0616C6FF020055A
:100CD00041F00201616405602046FFF761FF206872
:100CE000056070BD70B504004FF0000503D0206CA6
:100CF000002610B107E0012070BD204600F01EF86C
:100D0000666484F83C60206CC00610D4206C20F42B
:100D1000885040F0020020642046FFF779FD6664A9
:100D2000206C20F0020040F00100206400E001256A
:100D300084F83C60284670BD704700002DE9F04102
:100D400086B0804614216846FFF7BFFA3249002575
:100D5000324C0326D8F8003014392F4A3048A342C9
:100D600034D1136843F480731360126802F4807204
:100D700005920A6842F001020A600968029501F0D2
:100D8000010105914021CDE90016694600F0C2FB42
:100D9000244C0427244B04F1140C181523606560BF
:100DA000A560810002018310C4E903508CE8AE0005
:100DB000C4E90A652046256300F004FA08B1FFF78C
:100DC0002AFEC8F83840C4F8388019E0174CA3420E
:100DD0001ED1136843F400731360126802F40072AA
:100DE00005920A6842F001020A600968029501F062
:100DF000010105911021CDE90016694600F08AFB3A
:100E000001220321122000F0D9FC122000F0C8FCBE
:100E100006B0BDE8F08100004438024000200140E7
:100E200000000240A4140020106402400021014090
:100E300018B50022009290F83C10012907D001213A
:100E400080F83C1001688B68DB0702D011E00220BB
:100E500018BD8C682A4B44F001048C60294909684C
:100E6000B1FBF3F101EB410100E0491E00910029C3
:100E7000FBD103689968C90740D0016C40F2016456
:100E8000A14341F4807101645968490505D5016C9D
:100E900021F4005141F480510164016CC90404D56E
:100EA000416C21F00601416400E042646FF02204CD
:100EB000154980F83C201C60D1F80423D20607D0E5
:100EC00002688A420AD1936813F0405F02D005E0BD
:100ED00000680BE0936843F080439360D1F80413FB
:100EE000C9060BD400680949884207D1816811F00E
:100EF000405F03D1816841F080418160002018BDCE
:100F000040420F003000002000200140002201403C
:100F100018B50022009290F83C10012907D0012159
:100F200080F83C1001688B68DB0702D011E00220DA
:100F300018BD8C682D4B44F001048C602C49096865
:100F4000B1FBF3F101EB410100E0491E00910029E2
:100F5000FBD101688B68DB0745D0036C40F201646C
:100F6000A34343F4807303644B685B0505D5036CAE
:100F700023F4005343F480530364036CDB0404D56F
:100F8000436C23F00603436400E042646FF02203E5
:100F900080F83C20174C184A0B6001684B682343CB
:100FA0004B60D2F80413C90607D0016891420AD1F8
:100FB0008B6813F0405F02D005E000680BE08B689F
:100FC00043F080438B60D2F80413C9060BD4006849
:100FD0000A49884207D1816811F0405F03D18168D6
:100FE00041F080418160002018BD000040420F00A8
:100FF00030000020200000040020014000220140B9
:1010000090F83510022903D08021416501207047F6
:10101000052180F835100068016821F001010160A8
:10102000002070472DE9F84304464FF00009644B57
:101030000820CDF800904FF41652A56D94F85C107E
:101040001B682E68B3FBF2F700FA01F131420FD0B2
:1010500021680A6852070BD50A6822F004020A6068
:1010600094F85C108840A860606D40F001006065F5
:1010700094F85C104FF0010808FA01F0304208D0F3
:1010800021684969090604D5A860606D40F0020036
:10109000606594F85C1004208840304208D02168D4
:1010A0000968890704D5A860606D40F00400606598
:1010B00094F85C1010208840304218D021680968EC
:1010C000090714D5A86020680168490304D50068A1
:1010D000000308D5A16C07E00168C90503D40168C5
:1010E00021F008010160216C09B12046884794F87D
:1010F0005C1020208840304231D021680968C90640
:101100002DD5A86094F8350005282068016806D020
:10111000490347D5006800031DD4616C1CE021F031
:10112000160101602068416921F080014161206C55
:1011300008B9A06C20B12068016821F008010160A5
:1011400094F85C303F229A40AA6084F8349084F886
:101150003580216D1FE0E16B09B120468847606D45
:1011600000282BD0606DC00714D0052084F835000E
:101170002068016821F0010101600098401C009086
:10118000B84203D820680068C007F6D184F83490CC
:1011900084F83580E16C002910D001B02046BDE80C
:1011A000F04308470168C905D5D4036823F010034C
:1011B000036084F8349084F83580CCE7BDE8F88388
:1011C000300000202DE9F047044600F095FA05466E
:1011D00064B14FF0000984F83490022184F835108E
:1011E0002068016821F0010101600EE00120BDE8E6
:1011F000F08700BF00F080FA401B052805D92021A8
:101200006165032084F83500F1E720680068C007B5
:10121000F0D1D4E90020D4E90251D4E9043C2843B8
:1012200004F1180519430843116895E8E00140EA04
:101230000C001C4B2843194040EA060040EA070016
:10124000B8F1040F40EA010003D1D4E90B131943AC
:101250000843106020680126656A4069042D20F06B
:10126000070045EA00050CD1D4E90A01054341B164
:101270002046FFF78BFB20B14020606584F8356085
:10128000B4E7206845612046FFF76CFB94F85C30BA
:101290003F229A408260C4F8549084F83560002060
:1012A000A5E700003F8010E02DE9F041044690F8EA
:1012B000340000250128A66D0ED094F835C0012712
:1012C000002084F83470BCF1010F07D0022584F8A7
:1012D00034002846BDE8F0810220FBE7022784F8AD
:1012E000357060652046FFF77BFB94F85C103F206B
:1012F0008840B0602068016841F0160101602068F4
:10130000416941F080014161206C20B12068016891
:1013100041F0080101602068016841F001010160AD
:10132000D7E7000070B5044600F0E6F90546601CFA
:1013300002D004480078044400F0DEF9401BA042CB
:10134000FAD370BD240000202DE9FC4704465E4816
:10135000FFF76EFD5DA0DFF87881002601965D4DF8
:10136000012C00684FF47A794FF0010700900DD0FE
:10137000022C7DD188F800703846C8F8086098F8CB
:101380000110002975D088F8016090E052480021D2
:1013900001F086FB4E4C394688F80010FF27D8F83C
:1013A0000800241D40B1012825D0022847D0032879
:1013B00068D004286DD073E0C8F808102868C169A7
:1013C000C9434906FBD44348062244A14B4601F0D9
:1013D00021FC2868C169C9434906FBD46846FEF769
:1013E0007FFF82B23B484B46694601F013FC2770F1
:1013F0009220667021E00220C8F808002868C169C0
:10140000C9434906FBD43348062236A14E464B4613
:1014100001F000FC2868C169C9434906FBD468464D
:10142000FEF75EFF82B22B483346694601F0F2FBBD
:10143000F82121701E2262700720A07030E0032086
:10144000C8F808002868C169C9434906FBD4214887
:10145000062226A14B4601F0DDFB2868C169C9437D
:101460004906FBD46846FEF73BFF82B24B4601E0DB
:1014700019E01AE01748694601F0CCFB26705120AC
:10148000607004E00420C8F8080027706770A77037
:1014900006E0C8F8086059202070DA216770A17052
:1014A000C820FFF73FFFBDE8FC8788F801002868E7
:1014B000C169C9434906FBD4064806220DA14B4623
:1014C00001F0A8FBEFE70000141400200A0D000053
:1014D0000000002024160020041500204D6F6465D4
:1014E000203100004D6F6465203200004D6F64654F
:1014F000203000004D75736963300000044910B559
:101500000A68024202D00860FFF71EFF10BD00000B
:10151000143C01402DE9F84FDFF89CE100224FF028
:1015200001084FF0030B4FF00F0A00BF0B6808FAD9
:1015300002F42340A34271D14D68022D01D0122D37
:101540000FD1D5080E69570700EB8505A9462D6A0E
:10155000FF0E0AFA07FCBE4025EA0C052E43C9F827
:1015600020600F79550006680BFA05FC07F00307A9
:1015700026EA0C06AF40374307604E68012E05D0BF
:10158000022E03D0112E01D0122E0ED18668CF6804
:1015900026EA0C06AF403743876046680F79A643BA
:1015A000C7F30017974037434760C4688E6824EA42
:1015B0000C04AE402643C6604C68E40075D53F4C31
:1015C000256845F480452560246822F003069507C8
:1015D00004F4804400943A4C2D0F2644D6F8084871
:1015E000DFF8E0C00AFA05F7604524EA070401D1F4
:1015F00000272EE0344FB84201D1012729E0334FB4
:10160000B84201D1022724E0314FB84201D103276B
:101610001FE0304FB84202D104271AE045E02E4FB8
:10162000B84201D1052714E02C4FB84201D106275A
:101630000FE02B4FB84201D107270AE0294FB842EB
:1016400001D1082705E0284FB84201D1092700E061
:101650000A27AF4027437546C6F808784E68DEF87B
:101660000040F60324EA030400D51C43124E2C600C
:10167000361D4D683468AD0324EA030400D51C43CD
:101680000D4F346008374D683C68ED0224EA0304CE
:1016900000D51C43084D3C600C354E682C68B602E2
:1016A00024EA030400D51C432C60521C102AFFF4CA
:1016B0003DAFBDE8F88F0000003C014044380240D7
:1016C00000300140000002400004024000080240D7
:1016D000000C0240001002400014024000180240BA
:1016E000001C024000200240002402400AB1816137
:1016F00070470904FBE7000001488068704700005C
:1017000024000020024881680278114481607047FB
:1017100024000020032010B500F070F8002000F035
:1017200005F800F023F8002010BD000070B50D4D45
:1017300004464FF47A700C4A29781268B0FBF1F035
:10174000B2FBF0F000F0C6FD48B9102C07D2002221
:101750002146501E00F032F800206C6070BD012060
:1017600070BD000024000020300000200B4882B033
:10177000016841F080510160006800F080500090E5
:101780000648001D016841F480410160006800F4D2
:1017900080400090052002B000F030B84038024090
:1017A000002809DB410900F01F028900012001F136
:1017B000E0219040C1F80001704700000E4BF0B4EA
:1017C0001B680D46C3F30223C3F10706042E00D99C
:1017D0000426191D072901D2002300E0DB1E012485
:1017E00004FA06F19C40491E2940641E99401440A9
:1017F0002143F0BC02F0EFBE0CED00E0064900F022
:10180000070210B54FF6FF040868044B204040EA79
:1018100002201843086010BD0CED00E00000FA053E
:101820001848F8B5016841F0805101600068164C15
:1018300000F080500090206840F480302060FFF776
:101840005BFF4FF47A76054605E000BFFFF754FFD3
:10185000401BB0420FD86068C003F7D5206840F441
:1018600000302060FFF748FF054606E0FFF744FF21
:10187000401BB04201D90320F8BD60688003F5D554
:101880000020F8BD40380240007000402DE9F84FBC
:1018900004460078DFF824944FF000063746C0076E
:1018A0000ED0D9F8001021F40001C9F80010D9F8C1
:1018B0000010626B1143C9F80010606B00B901267B
:1018C000FE4D2068843500030ED5E16B286820F4B6
:1018D000401008432860E06BB0F5801F01D010B1C4
:1018E00002E0012600E0012720684FF4800BC002CF
:1018F0000CD5216C286820F4400008432860206C37
:10190000584501D1012601E000B901272068C10135
:1019100000D50126800666D5E8483830016841F0D8
:10192000805101600068DFF898A300F080500090BB
:10193000DAF8001041F48071CAF80010FFF7DCFEFD
:10194000804605E0FFF7D8FEA0EB080064287DD8AC
:10195000DAF80000C005F5D5DFF8608308F1680803
:10196000D8F8000010F440702AD0218E01F44071A4
:10197000814225D0D8F80010D8F8002021F4407119
:1019800042F48032C8F80020D8F8002022F48032D7
:10199000C8F80020C8F80010D8F80000C0070FD021
:1019A000FFF7AAFE824607E0FFF7A6FEA0EB0A01BA
:1019B00041F288308142CAD8D8F800008007F3D5B8
:1019C000206BC0F3012103297ED0D9F8001021F447
:1019D000F811C9F80010228ED8F80010C2F30B02DB
:1019E0001143C8F800102078C00607D5286820F0F9
:1019F000807028602868A16B084328602188AF4860
:101A00008830490405D5626E016821F440311143E4
:101A100001602188090405D5A26E016821F44021E6
:101A2000114301602168C90305D5E26E016821F404
:101A30004011114301602168890305D5226F0168B7
:101A400021F4400111430160217800E034E14906AE
:101A500005D5626C016821F0030111430160217812
:101A6000090605D5A26C016821F00C011143016043
:101A70002188C90505D5E26C016821F030011143C8
:101A800001602188890505D5226D016821F0C0011A
:101A9000114301602188490505D5626D016821F473
:101AA0004071114301602188090505D5A26D0168C7
:101AB00021F44061114301602188C90407D5E26D1A
:101AC000016821F4405100E05FE01143016021888A
:101AD000890405D5226E016821F44041114301605B
:101AE0002168490205D5A26F016821F08061114388
:101AF000016021684FF0006A890209D5E26F016830
:101B000021F0006111430160E16F514500D10127CF
:101B100021680A0700D50127490305D5626F0168CE
:101B200021F04071114301602168090206D5D4F803
:101B30008020016821F08051114301602168490132
:101B400006D5D4F88420016821F0005111430160CA
:101B50002068000106D5D4F88810286820F00070AD
:101B6000084328602068C00006D5D4F88C10286887
:101B700020F0806008432860DFF84891012E0ED0E5
:101B80002068B0F1007F0AD08FE04F4AD9F80030CA
:101B9000104023F4F8120243C9F800201BE7D9F8DB
:101BA00000004E4620F08060C9F80000FFF7A4FD59
:101BB000804605E0FFF7A0FDA0EB080064287BD875
:101BC00030680001F6D421783C487C30C90712D037
:101BD000616B81B9237A62680168D0F800C0920114
:101BE000C1F3014142EA0142CCF3036142EA0161DF
:101BF00041EA0371016021680A0303D5E26BB2F583
:101C0000801F04D0C9021AD5216C594517D16368C9
:101C1000016894F80CC002689B01C1F3014143EADA
:101C20000141C2F3027241EA0C6141EA02710160B2
:101C30002968626A21F01F01521E11432960216840
:101C4000C90110D5238A62680168D0F800C09201EA
:101C5000C1F3036142EA034242EA0162CCF302713A
:101C600042EA01710160216889010CD56168228A0C
:101C7000237B94F808C0890141EA024141EA0361EB
:101C800041EA0C7101603168B04641F08061316019
:101C9000FFF732FD064604E0FFF72EFD801B6428A7
:101CA0000AD8D8F800000001F6D5E7B3D9F800004B
:101CB0004E4620F0805009E07BE0000008380240EA
:101CC0000070004000380240FFFCFF0FC9F8000020
:101CD000FFF712FD074604E0FFF70EFDC01B642866
:101CE00067D83068C0438000F6D5216835480A03BC
:101CF00001D5E26B1AB1C9021DD5216CD9B963694E
:101D00000168277E02689B01C1F3014143EA014358
:101D1000C2F3027143EA076242EA01710160296875
:101D20006FF0FF0300E04BE0A26A21F4F85103EBEF
:101D30000222114329602168890212D5E16F5145C1
:101D40000FD1238C6269016807689201C1F30361B6
:101D500042EA034242EA0162C7F3027142EA0171B8
:101D600001602178090716D561690268D0F800C0C2
:101D70008B01277FC2F30362CCF3014143EA0141A7
:101D800041EA026141EA077101602868E16A20F4D2
:101D9000403008432860306840F080503060FFF7E2
:101DA000ABFC044608E000BFFFF7A6FC001B64285C
:101DB00002D90320BDE8F88F3068C0438000F3D417
:101DC0000020F7E7883802402DE9F04705000F466C
:101DD00063D0444E306800F00F00B84209D230683A
:101DE00020F00F0038433060306800F00F00B84238
:101DF00053D128683C4C810712D5400703D5206891
:101E000040F4E05020602878000703D5206840F4B3
:101E100060402060A968206820F0F000084320603E
:101E20002878C0072AD0304968680839012810D0BE
:101E30000968022810D0890700292EDA216821F0CC
:101E4000030101432160FFF757FC804641F28839C6
:101E50000DE009688903EFE78901EDE7FFF74CFC26
:101E6000A0EB0801494502D90320BDE8F087686866
:101E7000216801F00C01B1EB800FEFD1306800F068
:101E80000F00B8420BD9306820F00F0038433060A3
:101E9000306800F00F00B84201D00120E5E7287853
:101EA000400705D5E968206820F4E0500843206029
:101EB0002878000706D52869216821F4604141EAA5
:101EC000C000206000F036F82168084AC1F3031111
:101ED000515CC840064908600020FFF727FC00203D
:101EE000C3E70000003C024008380240BC5700082D
:101EF000300000200449054809680068044AC1F31D
:101F00008221515CC84070470838024030000020F0
:101F1000CC5700080449054809680068044AC1F321
:101F20004231515CC8407047083802403000002000
:101F3000CC570008154910B51548096811F00C0276
:101F400013D01449042A0FD0082A0ED10F4C241F95
:101F50002268236802F03F025B0207D52068C0F3C5
:101F60008810A0FB010106E0084610BD2168C1F3FE
:101F70008811A1FB00010023FEF75CF92168C1F381
:101F80000141491C4900B0FBF1F010BD0838024086
:101F90000024F40040787D012DE9F84F05004FF052
:101FA00000076ED02878DFF82093A9F1040AC00753
:101FB000AAF104044CD0D9F800104846C1F38101BD
:101FC000012908D00068C0F3810002280AD1DAF89C
:101FD0000000400206D52068800339D568680028D3
:101FE000DFD035E06868B0F5803F0BD010B1B0F5B8
:101FF000A02F11D0206820F480302060206820F4C9
:10200000802002E0206840F480302060686890B151
:10201000FFF772FB06460AE0206840F4802020604B
:10202000F0E700BFFFF768FB801B642872D82068C8
:102030008003F7D50CE0FFF75FFB064605E000BF25
:10204000FFF75AFB801B6428F0D820688003F7D480
:102050002878800742D5D9F80010484611F00C0FB7
:1020600008D00068C0F3810002280BD1DAF8000024
:10207000400207D42068800718D5E868012800D1FD
:1020800014E01EE1E8680028206817D040F0010045
:102090002060FFF731FB064605E000BFFFF72CFB91
:1020A000801B0228C2D820688007F7D528692168DC
:1020B00021F0F80141EAC00020600FE020F00100AB
:1020C0002060FFF719FB064605E000BFFFF714FB91
:1020D000801B02281ED820688007F7D428780007C4
:1020E00029D5794869696C3000298046016812D089
:1020F00041F001010160FFF7FFFA064605E000BF6D
:10210000FFF7FAFA801B022804D8D8F800008007ED
:10211000F6D510E089E021F001010160FFF7ECFA4B
:10212000064604E0FFF7E8FA801B02287DD8D8F8BD
:1021300000008007F6D4287840076BD5DFF8888147
:1021400008F13808D8F80000C0000BD4D8F8001007
:1021500041F08051C8F80010D8F80000012700F0C5
:102160008050009059480168C90512D4016883461F
:1021700041F480710160FFF7BFFA064605E000BF39
:10218000FFF7BAFA801B64284FD8DBF80000C005BF
:10219000F6D54D4EA868683601280AD008B1052842
:1021A00011D0306820F001003060306820F0040069
:1021B00002E0306840F001003060A868A0B1FFF78D
:1021C0009BFA83460CE0306840F004003060F0E792
:1021D000FFF792FAA0EB0B0141F28830814268D8F8
:1021E00030688007F4D50EE0FFF786FA834607E0F3
:1021F000FFF782FAA0EB0B0141F28830814258D8F8
:1022000030688007F4D42FB1D8F8001021F0805145
:10221000C8F80010A869E0B3D9F80010C1F3810133
:1022200002294ED00228206800E042E020F08070B1
:10223000206003D0FFF760FA05463DE0FFF75CFA47
:10224000064604E0FFF758FA801B022831D82068C0
:102250008001F7D4D5E90921DFF874C0D5E9070674
:1022600095F830304F0895F82C1030430CEB0745AB
:1022700045EA8212104340EA016040EA0370CAF85E
:102280000000206840F080702060FFF735FA0546B6
:1022900005E014E0FFF730FA401B022809D8206857
:1022A0008001F7D50BE000BFFFF726FA401B02289C
:1022B00002D90320BDE8F88F20688001F4D4002003
:1022C000F8E70120F6E700000838024000700040FF
:1022D0000000FFFF401EB0F1807F10B501D3012048
:1022E00010BD4FF0E02460610F21601702F073F918
:1022F0000020A0610721216110BD70477047704721
:102300002DE9F04390F83C20012A42D0012280F8C8
:102310003C2051F80C4BDFF880804FF0000991E829
:10232000680051E9022723F44073B1F80CC03B4325
:10233000CF6923F480631343026823F400632343CB
:1023400023F4805343EA050323F4005343EA0603CE
:1023500023F4804343EA07030C3923F470234245F6
:1023600043EA0C4302D00D4CA2420CD18D8C23F4D5
:102370007006D1E9073446EA055121F0807119430E
:1023800021F000732343536480F83C900020BDE8A3
:10239000F0830220FBE70000000001400004014040
:1023A00070B590F83C20012A24D0134C012580F808
:1023B0003C50022280F83D2002685368A242966891
:1023C00002D00E4CA24203D14C6823F47003234385
:1023D0000C6823F0700389681C435460002326F0C6
:1023E000800602683143916080F83D5080F83C30AF
:1023F000184670BD022070BD00000140000401407D
:1024000010B5040003D094F83D0010B107E001209E
:1024100010BD002084F83C00204600F00DF802209A
:1024200084F83D002068211D00F080FE012084F822
:102430003D00002010BD000008B501681048B1F152
:10244000804F14D00F4A914219D1016841F0040124
:10245000016000680222012100F0040000901E20AB
:10246000FFF7ACF9BDE808401E20FFF799B90168F5
:1024700041F001010160006800F00100009008BD1A
:1024800040380240000800400A4B022180F83D100D
:1024900001688A681A40062A06D0B2F5803F03D048
:1024A0000A6842F001020A60012180F83D10002014
:1024B00070470000070001000168094ACB6843F03B
:1024C0000103CB60016888681040062806D0B0F58B
:1024D000803F03D0086840F001000860002070478A
:1024E0000700010070B5044690F83C00012817D0A1
:1024F000324B012584F83C50022084F83D002268CC
:102500009068184020F47F4090600868502830D0D0
:102510000DDC20284DD005DC98B310283BD148E0D5
:10252000022070BD302844D0402834D139E06028E2
:1025300028D0702806D0B0F5805F2CD0B0F5005FB1
:1025400029D10AE04A682068D1E9021300F0A7FE09
:102550002068816841F0770109E04A682068D1E984
:10256000021300F09CFE2068816841F48041816084
:1025700011E0CA684968206800F0D8FF206850213F
:1025800007E016E0CA684968206800F0E0FF2068AC
:10259000602100F08DFE002084F83D5084F83C005E
:1025A00070BDCA684968206800F0C0FF20684021FB
:1025B000EFE7226801461046EBE7000088FFFEFFC8
:1025C0007047704770B50446006800250169C9432B
:1025D000890715D4C168C943890711D4EA1E02616D
:1025E00001212177206880698007204602D0FFF70B
:1025F000E8FF04E000F0D2F8204600F0B9F92577B2
:1026000020680169C943490717D4C168C94349070C
:1026100013D402216FF004020261217720688069DF
:1026200010F4407F204602D0FFF7CBFF04E000F01B
:10263000B5F8204600F09CF9257720680169C94368
:10264000090716D4C168C943090712D404216FF0E1
:102650000802026121772068C0698007204602D005
:10266000FFF7AFFF04E000F099F8204600F080F992
:10267000257720680169C943C90617D4C168C943D1
:10268000C90613D408216FF0100202612177206877
:10269000C06910F4407F204602D0FFF792FF04E0AB
:1026A00000F07CF8204600F063F925772068016986
:1026B000C943C90708D1C168C943C90704D1891EE4
:1026C0000161204600F03EFA20680169C94309060D
:1026D00009D4C168C943090605D46FF080010161BE
:1026E0002046FFF70BFE20680169C943C90509D4DC
:1026F000C168C943090605D46FF4807101612046A1
:10270000FFF7FBFD20680169C943490609D4C16888
:10271000C943490605D46FF040010161204600F02D
:1027200012FA20680169C94389060BD4C168C943FC
:10273000890607D46FF0200101612046BDE8704092
:10274000FFF7DDBD70BD000010B586B00446142152
:102750006846FDF7BAFD0E492068884216D10D483B
:10276000016841F01001016000680123022200F0BD
:102770001000059000204FF4007100916946CDE9EA
:102780000120CDE903030448FEF7C4FE06B010BDE6
:10279000000001403038024000100240704770B520
:1027A000044690F83C000D4601280ED0012684F81E
:1027B0003C60022084F83D000C2A45D007DC5AB169
:1027C000042A1BD0082A78D12CE0022070BD102AE0
:1027D0004ED0142A71D15DE0206800F071FD2068B0
:1027E000816941F0080181612068816921F004015B
:1027F000816120682A698169114311E0206800F035
:1028000099FD2068816941F40061816120688169D6
:1028100021F48061816120682969826942EA01218D
:1028200081614AE0206800F0C1FD2068C16941F083
:102830000801C1612068C16921F00401C1612068FB
:102840002A69C169114311E0206800F0EBFD20689E
:10285000C16941F40061C1612068C16921F48061EE
:10286000C16120682969C26942EA0121C16124E08D
:10287000206800F003FE2068416D41F008014165C9
:102880002068416D21F00401416520682A69416D8D
:10289000114311E0206800F01DFE2068416D41F4F5
:1028A000006141652068416D21F4806141652068C7
:1028B0002969426D42EA01214165002084F83D60AA
:1028C00084F83C0070BD10B5040003D094F83D00BE
:1028D00010B107E0012010BD002084F83C00204624
:1028E00000F00CF8022084F83D002068211D00F063
:1028F0001DFC012084F83D00002010BD2DE9F843A7
:10290000174980460068884227D11648016841F07F
:102910000101016000684023134C4FF4807C13498F
:1029200000F0010004F10C09009000200D15216059
:10293000CE14DF0189E8E110D902C4E908104FF094
:1029400040622046C4E90123FEF73CFC08B1FEF7D3
:1029500062F8C8F82440C4F83880BDE8F883000065
:102960000000014044380240C415002028640240A1
:10297000704770472DE9F041044690F83D00174636
:102980000D46022856D094F83D00012805D10FB914
:10299000002B71D1022084F83D003B483B493C4E5E
:1029A00035B1042D16D0082D47D00C2D24D156E07A
:1029B000626AD063606A01643946606AC6642268EC
:1029C000606A3432FEF770FCB0BB2068C16841F425
:1029D000007110E0A26AD063A06A01643946A06A5F
:1029E000C6642268A06A3832FEF75EFC20BB20680D
:1029F000C16841F48061C16020680122294600F06D
:102A0000FBFB24492068884202D02349884203D135
:102A1000416C41F4004141642068204A81681140C2
:102A2000062906D0B1F5803F03D0016841F00101CD
:102A300001600020BDE8F0811EE0E26AD063E06A38
:102A400001643946E06AC6642268E06A3C32FEF7F7
:102A50002BFC88B92068C16841F40061CBE7226B88
:102A6000D063206B01643946206BC6642268206BFA
:102A70004032FEF719FC08B10120DBE72068C1688D
:102A800041F48051B7E700001332000851320008CA
:102A90008F320008000001400004014007000100DF
:102AA00070B5044600680D0006D0042D0AD0082D2C
:102AB00038D00C2D0DD13BE0C16821F40071C1600C
:102AC000606A04E0C16821F48061C160A06AFEF719
:102AD00097FA20680022294600F08EFB41F211117E
:102AE000164B20688A10984202D0154B984209D1A3
:102AF000036A0B4206D1036A134203D1436C23F4E9
:102B0000004343642068036A0B4206D1016A114204
:102B100003D1016821F001010160012084F83D002A
:102B2000002070BDC16821F40061C160E06ACEE799
:102B3000C16821F48051C160206BC8E700000140EA
:102B4000000401407047704710B5040002D0606F68
:102B500010B107E0012010BD002084F8700020466D
:102B600000F026F8242060672068016821F0010148
:102B70000160204600F080FD0128ECD0606A10B1B1
:102B8000204600F0F6FC2068416821F49041416045
:102B90002068816821F02A0181602068016841F085
:102BA000010101602046BDE8104000F046BD000074
:102BB00010B586B0044614216846FDF786FB12491D
:102BC000206888421ED11148016841F480210160CB
:102BD000006800F4802005900C481038016841F02E
:102BE0000801016000680221002200F00800059041
:102BF000032307244FF440708DE81F000448694602
:102C0000FEF788FC06B010BD004800404038024086
:102C1000000C02402DE9F8430446406F1F4616465B
:102C20000D4620284FD1CDB1C6B194F870000128CF
:102C300049D0012284F8702021214FF00008C4F807
:102C40007C806167FEF758FD8146A068A4F850605B
:102C5000A4F85260B0F5805F03D004E00120BDE825
:102C6000F883206910B12E46002510E000260EE002
:102C70008021204600F02AFEB8B9C6B116F8010B33
:102C800021688862B4F85200401EA4F85200B4F8DB
:102C900052004B464FF0000200970028E8D14FF059
:102CA0004001204600F012FE38B10320D7E735F886
:102CB000020B2168C0F30800E3E7202161670020D0
:102CC00084F87080CBE70220C9E7FEE77FB517489C
:102CD00000210124144A00910191230402910391DF
:102CE0001D0302604FF03062C0E901310161816172
:102CF00080F82010C461C160C0E90A2580F8301056
:102D00004161FDF7EFFF08B1FDF785FE02210620C6
:102D100000900648CDE901416946FDF77FFE002895
:102D200001D0FDF778FE7FBD002001401414002083
:102D30007FB5154800240125124900942A04019406
:102D40000294039480E81600856104610F4980F8BD
:102D50002040C0E90A14C561C46080F83040446175
:102D6000FDF7C0FF08B1FDF756FE04206946CDE926
:102D7000000505480294FDF751FE002801D0FDF73B
:102D80004AFE7FBD002101405C1400200100000FBD
:102D90000D4808B5016841F4800101600068002217
:102DA000114600F4800000903820FEF707FD38201F
:102DB000FEF7F6FC002239201146FEF7FFFCBDE8C5
:102DC00008403920FEF7ECBC303802402DE9F047CE
:102DD00086B014216846FDF778FA4148016841F051
:102DE00004010160016801F004010591016841F0EE
:102DF00020010160016801F020010591016841F0A6
:102E000001010160016801F001010591016841F0D3
:102E100002010160016801F002010591016841F0C1
:102E200010010160016801F010010591016841F095
:102E300008010160006844F28107DFF8A8900022D1
:102E400000F00800394605904846FEF74FFCDFF8D1
:102E500098A04FF44078002241465046FEF746FCC9
:102E6000224D4FF40050002469460294CDE900053C
:102E70005046FEF74FFB02206946CDE900051C488D
:102E80000294FEF747FB012600961A486946CDE9F1
:102E90000154FEF73FFB00976946CDE901644846BF
:102EA0000394FEF737FBCDF800806946CDE9016455
:102EB00050460394FEF72EFB002202210620FEF767
:102EC0007DFC0620FEF76CFC002201210720FEF7A6
:102ED00075FC0720FEF764FC06B0BDE8F087000033
:102EE0003038024000040240000802400000111087
:102EF000001402400000024010B596B000241C21CE
:102F00000BA8129413941494FDF7DFF92C21684652
:102F1000FDF7DBF9224802222049592380E81600F8
:102F2000C0E9033444618461FFF7CDFC08B1FDF7CB
:102F300072FD1B4812A9129413941494FFF730FAEF
:102F400008B1FDF768FD6020CDE90B0414480022AC
:102F50000BA90D940E940F9410941194FFF71FFC7D
:102F600008B1FDF758FD4FF400500094019401039F
:102F70000294CDE9044003940694CDE90741084842
:102F8000694609940A94FFF7BBF908B1FDF743FDC0
:102F90000348FFF7D9FB16B010BD00000000014048
:102FA0000415002010B588B01748002442F62F22DF
:102FB0004FF0804142F20F73009401940294039405
:102FC00004940594069480E81600C0E903348461F3
:102FD000FFF716FA08B1FDF71EFD4FF48050009080
:102FE00009486946FFF77EFA08B1FDF714FD202075
:102FF0000490054804A90694FFF7D2F9002801D0EF
:10300000FDF709FD08B010BD4415002010B588B0CB
:1030100017480024154940F66F0242F20F730094DE
:1030200001940294039404940594069480E8160095
:10303000C0E903348461FFF7E3F908B1FDF7EBFC65
:103040004FF4805000900A486946FFF74BFA08B1E8
:10305000FDF7E1FC064804A904940694FFF7A0F9E3
:10306000002801D0FDF7D7FC08B010BD00080040D3
:10307000841500200D48002110B50B4C0C224FF494
:10308000E1330460C0E90131C160C0E9041281612B
:10309000C16101624162FFF757FD002803D0BDE81E
:1030A0001040FDF7B8BC10BD0048004024160020B9
:1030B000FEE7704770477047FEF724BB104A30B5F3
:1030C0001048146800210F4B44F470041460083356
:1030D00005680D4A0D4C45F001050560196003684F
:1030E000051D1340074A03600C322C600568E30598
:1030F000034C25F480250560803C1160236030BDC1
:1031000088ED00E000380240FFFFF6FE103000249A
:10311000044810B5FFF756FA02F0FCFA02490870AD
:1031200010BD00008415002002000020F0B5274BE0
:103130004FF0804E264D02689842264E264F274C6F
:1031400009D0704507D0A84205D0B04203D0B8429C
:1031500001D0A04205D1D1F804C022F070024CEA9F
:10316000020298421BD0704519D0A84217D0B04235
:1031700015D0B84213D0A04211D0194DA8420ED09C
:10318000184DA8420BD0184DA84208D0174DA842A0
:1031900005D0174DA84202D0164DA84203D1CD68E4
:1031A00022F440722A434D6922F080022A430260D1
:1031B00098428A68C2620A68826201D0A04201D144
:1031C0000969016301214161F0BD00000000014077
:1031D0000004004000080040000C004000040140D2
:1031E00000400140004401400048014000180040F8
:1031F000001C00400020004010B5046A012301F0CB
:103200001F018B409C4304628A40016A11430162A2
:1032100010BD10B5846B012184F83D10626A8242B2
:1032200001D121770EE0A16A814201D1022008E09C
:10323000E16A814201D1042003E0216B814201D186
:10324000082020772046FFF793FB0020207710BD51
:1032500010B5846B012184F83D10626A824201D16D
:1032600021770EE0A16A814201D1022008E0E16AE3
:10327000814201D1042003E0216B814201D1082069
:1032800020772046FFF775FB0020207710BD10B592
:10329000806B012180F83D10FFF792F910BD42EAE2
:1032A000032283680A4323F47F410A438260704704
:1032B000826822F070020A4342F007018160704781
:1032C000F0B5026ADFF860C0184F22F00102DFF8A3
:1032D00060E00262066A4268836926F002060D68B1
:1032E000B8428C6803EA0C0323F0030344EA0604A3
:1032F00045EA030501D0704505D1CB6824F00804E8
:10330000234323F00404B84201D0704505D122F4D0
:103310004076D1E9053233431A43426085614968FA
:1033200041630462F0BD00008FFFFEFF000001401A
:1033300000040140F0B5026A194E1A4C22F0100246
:10334000DFF864E00262056A4368826925F02005BF
:10335000D1F808C0A0420F6802EA060222F44072C7
:1033600045EA0C1542EA072201D0704506D1CE6825
:1033700025F0800545EA061525F04005A04201D05C
:10338000704507D1D1E9054623F4406343EA84033D
:1033900043EA860343608261496881630562F0BD48
:1033A000FF8FFFFE0000014000040140F0B5026AFB
:1033B000194F1A4E22F48072DFF864E00262056A47
:1033C0004368C26925F40075D1F808C0B0420C68A2
:1033D00002EA070222F0030245EA0C2544EA02044D
:1033E00001D0704506D1CF6825F4006242EA072279
:1033F00022F48065B04201D0704507D123F44052D9
:10340000D1E9053642EA031242EA06134360C46179
:103410004968C1630562F0BD8FFFFEFF00000140F7
:1034200000040140F0B5026A124B114F22F48052A1
:1034300098420262046A4268C36924F400548E68A8
:103440000D6803EA070323F4407344EA063443EAB1
:10345000052302D0084DA84204D14D6922F48042D0
:1034600042EA85124260C361496801640462F0BDAA
:10347000FF8FFFFE0000014000040140F0B5026A2A
:10348000DFF844C022F480320262056A4268446D6B
:1034900025F400350E8960450C4F0B6804EA0704DB
:1034A00045EA064543EA040302D0094CA04204D190
:1034B0004C6922F4803242EA042242604365496842
:1034C00081650562F0BD0000000001408FFFFEFF36
:1034D00000040140F0B5026ADFF844C022F4801213
:1034E0000262046A4268436D24F400140E89604548
:1034F0000C4F0D6803EA070344EA065443EA052328
:1035000002D0094DA84204D14D6922F4802242EA3A
:103510008522426043654968C1650462F0BD0000D0
:1035200000000140FF8FFFFE0004014010B5036A58
:10353000046A23F00A0324F00104046284690B4343
:1035400024F0F00141EA02118161036210BD10B55F
:10355000036A23F0100303628369046A23F470434F
:1035600024F0A00443EA0232826144EA01110162BC
:1035700010BD90F82410C90706D00168836A4A6814
:1035800022F400321A434A6090F82410890706D5C5
:103590000168C36A4A6822F480321A434A6090F88C
:1035A0002410490706D50168036B4A6822F480227B
:1035B0001A434A6090F82410090706D50168436B46
:1035C0004A6822F400421A434A6090F82410C9065F
:1035D00006D50168836B8A6822F480521A438A6098
:1035E00090F82410890606D50168C36B8A6822F416
:1035F00000521A438A6090F82410490611D50168D8
:10360000036C4A6822F480121A434A60016CB1F5D7
:10361000801F06D10168436C4A6822F4C0021A4335
:103620004A6090F82410090606D50168826C486843
:1036300020F4002010434860704738B50025044648
:10364000C567FEF759F803462068006800070BD5E8
:103650006FF07E400090002220464FF4001100F0F1
:1036600035F908B1032038BD2020606784F8705018
:10367000A067002038BD00002DE9F04104468068B5
:10368000DFF818C2864F2368D4E90452E169284361
:103690001E6800250A438349104306EA0C060643C8
:1036A0001E604FF400422068E668436823F44053EC
:1036B000334343602368A669206AD3F808C03043C7
:1036C0002CF4306606439E602068B8420AD1086830
:1036D00010F0030052D001287BD002287AD00328B2
:1036E0006ED186E0704B98420AD1086810F00C0049
:1036F00079D004287BD0082877D00C2860D178E0D6
:103700006A4B98420AD1086810F030006BD010283C
:103710006DD0202869D0302852D16AE0644B98429D
:103720000AD1086810F0C0005DD040285FD0802822
:103730005BD0C02844D15CE05E4B98420DD1086854
:1037400010F440704FD0B0F5807F50D0B0F5007FBE
:103750004BD0B0F5407F33D14BE0574B98420FD15F
:10376000086810F4406009D0B0F5806F3FD0B0F524
:10377000006F3AD0B0F5406F22D13AE0012120E04D
:103780004E4B98420DD1086810F440502BD0B0F544
:10379000805F2CD0B0F5005F27D0B0F5405F0FD12F
:1037A00027E0474B98420BD1086810F440401AD0EC
:1037B000B0F5804F1BD0904217D0B0F5404F18D0D5
:1037C0001021E0694FF6EF76904238D109295DD299
:1037D00002E00CE009E006E0DFE801F00D102758F8
:1037E0002A5858582D000021EBE70221E9E704216F
:1037F000E7E70821E5E7FEF77DFB01E0FEF78AFB3E
:103800000146D4F80400490001EB5001B1FBF0F08F
:1038100080B2A0F11001B14238D84FF6F0732168A0
:10382000C0F342021840104324E026496068EBE7E9
:10383000FEF780FBE4E760684FF48031E4E7092994
:1038400024D2DFE801F0050819231C2323231F00DD
:10385000FEF750FB01E0FEF75DFB0146D4F80400E3
:1038600001EB5001B1FBF0F080B2A0F11001B142C8
:103870000CD82168C8600AE013496068F0E7FEF7D9
:1038800059FBEAE7606802EB5001EBE701250020F5
:10389000206660662846BDE8F0810000F369FFEF0E
:1038A00000100140903802400044004000480040B1
:1038B000004C0040005000400014014000780040DF
:1038C000007C00400048E8010024F4002DE9F041AC
:1038D000984617460E460446069D08E0681C06D02A
:1038E000FDF70AFFA0EB0800A8420BD855B12068ED
:1038F000C06936EA000017D00020B842EED00020A0
:10390000BDE8F0812168202000220B6823F4D073E9
:103910000B6021688B6823F001038B606067A067F0
:10392000032084F87020EBE70120E6E7FEE70000C3
:1039300070B520A28CB03021126809920246684608
:103940008DF828101CA100F01FFE1C4C2068C169D6
:10395000C9434906FBD409A8FCF7C2FC4FF47A76A8
:1039600082B2164809A93346FFF754F901250AE047
:10397000C169C9434906FBD4104801220AA933464C
:10398000FFF748F96D1C6846FCF7AAFCC0F1080077
:10399000A8422068ECD2C169C9434906FBD46846F5
:1039A000FCF79EFC82B2054833466946FFF732F9C0
:1039B0000CB070BD3078000025782000241600205F
:1039C00030B528A104468DB0F2EE080AD1E9000115
:1039D000B0EE000ACDE9090100F0D4FD00EE904AF6
:1039E0009FED221B23A0F8EE600A23A100680B9034
:1039F000684680EE802AB7EEC20A20EE010B53EC37
:103A0000102B00F0C1FD1E4C2068C169C943490656
:103A1000FBD409A8FCF764FC4FF47A7582B218480D
:103A200009A92B46FFF7F6F82068C169C943490682
:103A3000FBD46846FCF754FC82B211482B46694619
:103A4000FFF7E8F82068C169C9434906FBD40BA811
:103A5000FCF746FC82B20A480BA92B46FFF7DAF8BE
:103A60000DB030BD56696E203D200000666666666A
:103A700066660A400A0D0000252E3266000000002E
:103A800024160020F8B5134F0024FF21002000F079
:103A900055F8FF210646002000F050F8FF210546AA
:103AA000002000F04BF800902B460B483246214690
:103AB00000F0E4FC387818B9641CA4B25A2CE4D3A2
:103AC000054800F0BFFCF868BDE8F840C830FDF7D5
:103AD00029BC0000000000203C000020F8B50626AC
:103AE000074600255FF00004B4FBF6F02844B0FB65
:103AF000F6F106FB110000EB4001C8198278009234
:103B000043787A5C21460B4800F0B8FC641CA4B2F0
:103B10005A2CE9D3074800F095FC074CE068963032
:103B2000FDF700FC2078002803D16D1CADB2062DF6
:103B3000D8D3F8BD3C0000200000002070B50D4631
:103B40000446FCF7A9FB291B491C90FBF1F201FB81
:103B500012002044C0B270BD2DE9F041DFF86C8046
:103B6000FF27002600250024A019B0FBF7F107FB72
:103B7000110000F0F1F861190246154800F099FCB7
:103B8000E41CA4B25A2CEFD3114800F05BFC3220A5
:103B9000FDF7C8FBD8F80C00FDF7C4FB00240C4867
:103BA0006119002200F085FCE41CA4B25A2CF6D363
:103BB0006D1CADB2032DD6D398F80000002803D1B8
:103BC000761CB6B2FF2ECDD9BDE8F08100000020F2
:103BD0003C00002070B55A2600250024C4EB0420C8
:103BE000B0FBF6F02844C0B200F0B6F802460F4829
:103BF000214600F05EFC641CA4B25A2CEED30B48A4
:103C000000F020FC0A20FDF78DFB094C0320E16841
:103C1000B1FBF0F0FDF786FB2078002804D16D1C85
:103C2000ADB2B5F5A06FD8D370BD00003C00002048
:103C3000000000201249002070B50860BFF34F8FCC
:103C4000081F43F6FF7300680E4DC0F34E31C0F3FA
:103C5000C90203EA4114104644EA80762E60401EF1
:103C6000FAD2491EF5D2BFF34F8F0548703801686C
:103C700041F480310160BFF34F8FBFF36F8F70BD90
:103C800084ED00E060EF00E0BFF34F8FBFF36F8F74
:103C9000084900200860BFF34F8FBFF36F8F0648BD
:103CA000016841F400310160BFF34F8FBFF36F8FA4
:103CB0007047000050EF00E014ED00E030B5B7B001
:103CC000342124A8FCF701FB142131A8FCF7FDFAEC
:103CD00090216846FCF7F9FA1D48016841F08051CF
:103CE0000160006800F0805036901A48016841F485
:103CF00040410160006800250DF1B00C02242494BD
:103D00000822D823CDE92A4500F4404036901021FE
:103D10008CE81C0001202F94CDE9270124A8FEF790
:103D20003BF9FDF77DFDE2024FF4A0510F20CDE9F4
:103D3000341231AA072182E8310031A8FEF744F895
:103D4000E001139500906846FDF7A0FD37B030BD47
:103D5000403802400070004055280AD2A0EB800194
:103D60004FF47F4200EB400002EB012141EA0040AA
:103D700014E0AA2809D25538C0B2A0EB8001491E30
:103D800000EB400040EA014008E0AA38C0B2A0EBD6
:103D9000800100EB4000FF3141EA00200002704743
:103DA0002DE9F843194C80460026A078E0700025E4
:103DB0000F27E07800EB4001B5EB410F08D238B196
:103DC00098F80200009098F8013098F8002002E07E
:103DD0000F2300971A460E48294600F04FFB6D1C32
:103DE000ADB25A2DE5D30A4800F02CFB3220FDF786
:103DF00099FAE068FDF796FA2078002803D1761C3E
:103E0000B6B2062ED3D3BDE8F88300000000002030
:103E10003C000020F0B50446F5A02DED028B8BB0E0
:103E200000689FEDF48B0025CDF80000F2EE080A43
:103E3000B0EE000A00F0A6FBB7EEC00A04EBC50026
:103E40006D1C90ED001B062D81EE002B22EE080B61
:103E500080ED000BEADBE94D5FF000074FF47A7666
:103E600004EBC700E6A190ED000B01A853EC102B6A
:103E700000F08AFB2868C169C9434906FBD401A840
:103E8000FCF72EFA82B2DD4801A93346FEF7C2FEE6
:103E90002868C169C9434906FBD46846FCF720FA83
:103EA00082B2D64833466946FEF7B4FE7F1C062F21
:103EB000D6DB94ED001BB6EE002BB0EE000BB4EE9B
:103EC000C21BF1EE10FA34D294ED023BB4EEC23BC9
:103ED000F1EE10FA2DD294ED043BB4EEC23BF1EEBC
:103EE00010FA26D294ED063BB4EEC23BF1EE10FA86
:103EF0001FD294ED083BB4EEC23BF1EE10FA18D29B
:103F000094ED0A2BB4EEC02BF1EE10FA11DB286809
:103F10000024C169C9434906FBD4B8480822BAA1A4
:103F20003346FEF777FE2868C169C9434906FBD4CA
:103F300050E19FEDB82BB4EEC21BF1EE10FA18DB86
:103F400094ED022B9FEDB53BB4EEC32BF1EE10FACE
:103F50000FDB94ED042BB4EEC02BF1EE10FA08DB6E
:103F600094ED063BB0EE402BB4EEC23BF1EE10FAFE
:103F70003DDA9FEDAC2BB4EEC21BF1EE10FA18DB6C
:103F800094ED023B9FEDA94BB4EEC43BF1EE10FA69
:103F90000FD894ED043BB4EEC23BF1EE10FA08DB0F
:103FA00094ED064BB0EE423BB4EEC34BF1EE10FA8B
:103FB0001DDA9FEDA03BB4EEC31BF1EE10FA28DB37
:103FC00094ED024B9FED9D3BB4EEC34BF1EE10FA26
:103FD0001FD894ED044BB4EEC34BF1EE10FA18DB8E
:103FE00094ED064BB4EEC34BF1EE10FA11DB2868EA
:103FF0000124C169C9434906FBD48048082291A124
:104000003346FEF707FE2868C169C9434906FBD459
:10401000E0E09FED8F3BB4EEC31BF1EE10FA28DB1E
:1040200094ED023BB4EEC03BF1EE10FA21DB94EDCF
:10403000044BB0EE403BB4EEC34BF1EE10FA18DB8C
:1040400094ED064BB4EEC34BF1EE10FA11DB286889
:104050000224C169C9434906FBD4684808227EA1ED
:104060003346FEF7D7FD2868C169C9434906FBD42A
:10407000B0E09FED7C3BB4EEC31BF1EE10FA28DB01
:1040800094ED023BB4EEC03BF1EE10FA21DB94ED6F
:10409000044BB0EE403BB4EEC34BF1EE10FA18DB2C
:1040A00094ED064BB4EEC34BF1EE10FA11DB286829
:1040B0000324C169C9434906FBD4504808226BA1B7
:1040C0003346FEF7A7FD2868C169C9434906FBD4FA
:1040D00080E09FED693BB4EEC31BF1EE10FA2ADBE2
:1040E00094ED023B9FED664BB4EEC43BF1EE10FA4B
:1040F00021DB94ED043BB4EEC03BF1EE10FA1ADB89
:1041000094ED064BB0EE403BB4EEC34BF1EE10FA2B
:1041100011DB28680424C169C9434906FBD4374828
:10412000082259A13346FEF775FD2868C169C943C5
:104130004906FBD44EE09FED573BB4EEC31BF1EEB6
:1041400010FA28DB94ED021BB4EEC21BF1EE10FA5C
:1041500021DB94ED041BB4EEC01BF1EE10FA1ADB68
:1041600094ED062BB0EE401BB4EEC12BF1EE10FA2D
:1041700011DB28680524C169C9434906FBD41F48DF
:10418000082246A13346FEF745FD2868C169C943A8
:104190004906FBD41EE094ED081BB4EEC01BF1EE03
:1041A00010FA20DB94ED0A1BB4EEC01BF1EE10FAFE
:1041B00019DB28680624C169C9434906FBD40F48A6
:1041C000082239A13346FEF725FD2868C169C94395
:1041D0004906FBD46846FCF783F882B207483346A9
:1041E0006946FEF717FD0BB02046BDEC028BF0BD13
:1041F0000A0D00006666666666660A4024160020A0
:10420000252E32660000000046726571203D203088
:1042100000000000666666666666FA3FCDCCCCCCD0
:10422000CCCCF43F666666666666F63F9A999999C5
:104230009999E93FCDCCCCCCCCCCEC3F7B14AE47AC
:10424000E17A843F46726571203D20310000000014
:104250009A9999999999F13F46726571203D20325A
:1042600000000000333333333333E33F467265716C
:10427000203D2033000000009A9999999999C93FEF
:10428000666666666666E63F46726571203D203466
:10429000000000009A9999999999B93F4672657101
:1042A000203D20350000000046726571203D20361B
:1042B000000000002DE9F041104DFF2603270024E7
:1042C000B4FBF6F006FB1040FFF746FD01460C4834
:1042D00000F02EF90A4800F0B5F8C820FDF722F8E2
:1042E000E868B0FBF7F0FDF71DF82878002803D147
:1042F000641CA4B2FF2CE3D9BDE8F08100000020CB
:104300003C00002070B506463DA02DED028B82B02A
:104310000068F2EE080AB0EE000A009000F032F9F0
:1043200000EE906A9FED378BB7EE082BF8EE600A2F
:10433000364C4FF47A7580EE801AB7EEC10A20EE43
:10434000080BB4EEC20BF1EE10FA11D820686E1013
:10435000C169C9434906FBD42C480C222CA12B4629
:10436000FEF758FC2068C169C9434906FBD427E021
:10437000F2EE080AB0EE000A00F004F900EE906ACE
:104380009FED272BF8EE600A80EE801AB7EEC10A87
:1043900020EE080BB4EEC20BF1EE10FA1ED8206826
:1043A000FA26C169C9434906FBD418480C221EA14C
:1043B0002B46FEF72FFC2068C169C9434906FBD490
:1043C0006846FBF78DFF82B210482B466946FEF720
:1043D00021FC02B03046BDEC028B70BD2068002687
:1043E000C169C9434906FBD408480C2212A12B46D7
:1043F000FEF710FC2068C169C9434906FBD4DFE71A
:104400000A0D00006666666666660A40241600208D
:104410005370656564202B3D20353030000000006E
:10442000CDCCCCCCCCCC08405370656564202B3D02
:1044300020323530000000005370656564202B3D4C
:104440002030000030B5002405462146284600F003
:1044500040F8641CA4B25A2CF7D304EB44014FF685
:10446000FF72002002EAC10105E04A1C05EB410190
:10447000A1F80E0191B29029F7D330BD30B55A2979
:10448000039D07D201EB41010C18425463700120D7
:10449000A57030BD002030BD70B5002404EB44058C
:1044A0002E18641C415572705A2CB370F6D301203B
:1044B00070BD30B55A290AD2130E140C150A01EB3F
:1044C00041010A18435454700120957030BD0020FA
:1044D00030BDF0B55A2929D201EB4104002123183F
:1044E0000126C1F107075D7806FA07F2154201D0EF
:1044F0003C2700E01E2701EBC40500EB4505A5F8AD
:104500000E71075D174201D03C2700E01E27A5F879
:104510001E719F78174201D03C2200E01E22A5F8B0
:104520002E21491C0829DCD30120F0BD0020F0BD5C
:1045300070B500220C0EC1F30743C1F3072100BF81
:1045400002EB42052E18521C445573705A2AB17062
:10455000F6D3012070BD000000214FF4106300F578
:1045600087720148FEF706BA04150020002310B533
:1045700004461A461946FFF78FFF2046FFF762FFF1
:10458000204610BD00F038B80FB4084B10B504A990
:1045900002AA039800F062FC044602A9002000F081
:1045A000F4FF204610BC5DF814FB00008B5500089A
:1045B0004100080218BF04200A0E18BF40F0010095
:1045C0004FF07F4232EA010108BF40F002000128AB
:1045D00008BF05207047090700284FEA116104DB76
:1045E00000F1E02080F80014704700F00F0000F1A7
:1045F000E02080F8141D704710B52DED088B9FED5D
:10460000FE1A10EE100A10EE901AB0EE418A002247
:10461000A0F5000C4FF00073DFEDF89ABCF1FE4FEF
:104620004FF07F4403EB410C80F0A481BCF1804F3C
:10463000C0F01882F24901449FEDF23A9FEDF2AAD0
:10464000B1F5005F40F2CA8200F58021CB0C03F087
:104650000F0100EE101AC3F307137F3BA0EBC3500A
:10466000B8EEC02A01EE900A1A44DFEDE82AB0EE57
:10467000410A02EE220AF0EE403A31EEA30A31EE90
:10468000E32A10EE100A00F500606FF30B0002EE53
:10469000900A73EEE23A73EEA13AC1EE001A22EEEE
:1046A000210A10EE100A00F500606FF30B0000EE17
:1046B000100A00EE622A00EE632A62EE212A70EEF2
:1046C000221A21EEA12ADFEDD23A02EE233A23EE9E
:1046D000023A20EE012A22EE811A03EE211A32EE6E
:1046E000010A10EE100A00F500606FF30B0000EEF7
:1046F000100A72EE401A31EE812A9FEDC61A60EE62
:10470000011A9FEDC51A20EE011A9FEDC40A02EEB0
:10471000001A31EE810A10EE100A00F500606FF306
:104720000B0000EE100ABE4871EEC01A31EE812A6D
:10473000784400EBC10090ED003AD0ED011A100171
:1047400001EE100AF8EEC12A32EE211A31EE001AFB
:1047500031EE031A31EE221A11EE100A00F5006054
:104760006FF30B0008EE900A38EEE21A31EE431AAE
:1047700031EE400A30EE610A72EE40AA10EE900A65
:10478000002100F500606FF30B0009EE100A0846E7
:1047900030EEC9BAFBF7AAFF28EE890A00F00C0137
:1047A000F0EEC00A10EE900AB0F18B4F0FDD10EE64
:1047B000900AB4EB400F0AD310EE100A4FF08B4270
:1047C000B0EE699A62F31E0008EE900A13E068EEFC
:1047D0008B0A39EE0B1A4AEE810A30EE201A11EEDE
:1047E000100A00F500606FF30B0008EE900A30EE3F
:1047F000680A30EE209A0C20FBF778FF38EE890A21
:10480000B4EEE90AF1EE10FA38BF9FED86AA3AEE4F
:10481000000ABDEEC00A10EE100A011100EE101AD7
:10482000F8EEC00A00EE100AB8EEC00A38EEC00A70
:1048300030EE090ADFED7C1A9FED7C1A00EE211A9A
:10484000DFED7B1A7B4900F00F0040EE011A21EEEC
:10485000800A794401EB800191ED001A7649794490
:1048600001EB8001D1ED001A744901EE801A794400
:1048700001EB8000724990ED000A31EE001AB0EEB3
:10488000E00A10EE100A884215DA10EE100AB4EBB6
:10489000400F10D39FED6B0A30EE800ADFED6A0AFD
:1048A00020EE200A68EE010ABDEC088BBCEEC00ABF
:1048B00020EE200A10BD10EE100A6449884233DA57
:1048C00010EE100AB4EB400F2ED3BDEEE00A68EEF6
:1048D000010A10EE100A00EBD0725110C90501F167
:1048E0007E5100EE101AA0EB6200C00560EE200AB7
:1048F00000F17E5000EE100A60EE808A18EE900AF9
:10490000B4EB400F25D018EE900A400011D018EEFD
:10491000900AFFF74DFE042808BF00F0B9F9B0EE89
:10492000680ABDEC088B10BDF4EEE90AF1EE10FA4E
:104930000FD2022000F0C4F900F0AAF918EE100A14
:1049400010EE101ABDEC088B61F31E0000EE100A89
:1049500010BD022000F0B4F900F092F918EE100A30
:1049600010EE101ABDEC088B61F31E0000EE100A69
:1049700010BD00BFBCF1804F74D300BF00F1FF43F6
:10498000B3F1FE4F24D200BFB0EEC00A10EE100A01
:10499000C1F3C7537F2B0DDB972BBFF64BAEC3F193
:1049A00096034FF0010C0CFA03F3A3F1010C1CEA7F
:1049B000010F08D0012000F083F9BDEC088BBDE8A1
:1049C000104000F055B90B4218BF9FED218A31E627
:1049D00043001CBF4FF08073B3EB400F3CD96FF026
:1049E0001A02DFED1C1A20EE210A10EE100A10F058
:1049F000004FC9D11EE635E00000803F00000000F6
:104A0000001080C0ABAAAA3E0000003F0000803D1D
:104A10007EE24C3E00B03842D49AB8BB3BAA384242
:104A2000A0100000000000BFFC596337C9FF753AB1
:104A30001872313D3E10000072100000E20F0000BD
:104A40000000FC420000FE420000004B000040431A
:104A5000000080BF0000004DA0F50003B3F1FE4F41
:104A600021D2E7E503EB4103B3F1007F11D3F4EE6C
:104A7000690AF1EE10FA05D1430018BFB4EB400FFC
:104A800076D87BE701F0004141F0FC5100EE901A2E
:104A900074E7B3F1807F06D210EE903AA3F50003DD
:104AA00000EE903A6AE720F000426FF0FF4C604C55
:104AB00002EB0C03A34210D321F000439C44A44515
:104AC0000BD3B0F17E5F18BF5FEA410C50D0B2F15A
:104AD000FF4F98BFB3F1FF4F05D9BDEC088BBDE880
:104AE000104000F0C1B8B0F1FF4F0FD0C1F3C75272
:104AF0007F2A09DB972A11DAC2F19602012303FA11
:104B000002F2531E0B4205D0002208E011F0004FC4
:104B100055D128E00A4218BF012200D1022210F527
:104B2000000F13D028B3B0F1004F26D010F1814F01
:104B30004FD04FF0FE42B2EB400F94BF0120002057
:104B4000012202EBE171884239D10CE011F0004FF3
:104B500002D0012A38D032E0012A02BF9FED350A87
:104B6000BDEC088B10BD9FED340ABDEC088B10BD69
:104B70002FE011F0004F0CD121E0B1F1FF4F1ED01A
:104B800011F5000F05D011F0004F15D00AB1012A20
:104B900008D0022000F094F8BDEC088BBDE810406E
:104BA00000F056B8022000F08BF800F051F8BDEC90
:104BB000088BB1EE400A10BD0AB1012A04D0B0EE54
:104BC000690ABDEC088B10BDBDEC088B9FED1B0A7C
:104BD00010BDBDEC088BB0EE410A10BD30EE410AAD
:104BE0009FED171A9FED182A00EE413AB0EE4A1ACF
:104BF00060EE001A00EE431A61EEC11A9FED111A21
:104C000020EE011A20EE020A9FED102A01EE820A20
:104C100071EE001A11EE900A00F500606FF30B00C0
:104C200008EE900A31EE681A71EE00AAA6E50000BF
:104C3000FFFF3F00000080FF0000807F0000008039
:104C40000000803E00B0B841D49A38BB3BAAB841BE
:104C5000DFED030A9FED031A80EE810A7047000022
:104C60000000803F0000000030EE200A7047000086
:104C7000DFED020A80EEA00A70470000000000008D
:104C80009FED020A20EE000A70470000000000704D
:104C90009FED020A20EE000A70470000000000109D
:104CA00002E008C8121F08C1002AFAD170477047F5
:104CB000002001E001C1121F002AFBD17047000053
:104CC0000149086070470000380000200148FFF7E4
:104CD0004DBC00003C0000202DE9FF5F82B00021A8
:104CE000DDE90430020DDDF840B0034318D044F68E
:104CF0001050A2F2FF3242431514119801281FD020
:104D0000A5EB0B00401C5FEA000A4FF000064E4F77
:104D1000DFF83891B046504615D5CAF1000413E0CB
:104D2000119801244AA3012801D16FEA0B010298CE
:104D3000119AC0E90031C0E9024206B0BDE8F09F17
:104D4000CBF10000DFE704460021404A491842EB5E
:104D50000450CDE9001012E0E00707D032463B4690
:104D600040464946FBF7B0FB8046894632463B4603
:104D700010461946FBF7A8FB06460F466410002CA8
:104D8000EAD1DDE90401DDE90023BAF1000F06DA1A
:104D9000FBF79AFB42464B46FBF796FB05E0FBF719
:104DA00005FC42464B46FBF701FC04460E4600223A
:104DB000284BFBF783FC03D84FF0FF30014607E098
:104DC0000022254B20463146FBF7D7FAFBF75DFC66
:104DD000102409E0002C0ADB0A220023FBF72AFA40
:104DE000039B30321A55641E50EA0102F2D1641C52
:104DF000039AC4F111031444119A012A03D0012229
:104E000008430DD10AE0084304D000204FF0110BF5
:104E1000119072E7A3EB0B056D1E0DE05B4504DD01
:104E20004FF0000205F1010504E003DA4FF0000243
:104E3000A5F10105002AECD002981199C0E90231D0
:104E4000C0E9004579E70000000014400000F03F91
:104E5000300000000000F0430000E03F2DE9FF4F6C
:104E600095B09B468946064600250FE2252877D156
:104E700000242746F84A0121059400E0044316F86F
:104E8000013F203B01FA03F01042F7D130782A2885
:104E900011D06FF02F033078A0F13002092A16D814
:104EA000059A44F0020402EB820203EB4202104432
:104EB000761C0590EFE759F8042B0592002A03DAD7
:104EC000504244F40054059044F00204761C3078BB
:104ED0002E2816D116F8010F44F004042A280DD00C
:104EE0006FF02F023078A0F13003092B09D807EBBF
:104EF000870302EB4303C718761CF3E759F8047BDA
:104F0000761C30786C280FD006DC4C2817D0682827
:104F10000DD06A2814D104E0742810D07A280FD15B
:104F20000DE044F400140AE044F4801401E044F479
:104F300040147278824202D104F58014761C761CEB
:104F4000307866280BD013DC582877D009DC00288D
:104F500075D04528F6D04628F4D047281AD19DE1CF
:104F600018E0632835D0642879D0652812D195E1FE
:104F7000702873D008DC6728F1D069286FD06E28BC
:104F80000DD06F2806D1B5E073282CD0752875D0C8
:104F9000782874D05A46179990476D1C75E1C4F370
:104FA0000250022809D003280DD0D9F80010042897
:104FB0000DD00D6009F1040967E1D9F80010EA1776
:104FC000C1E90052F6E7D9F800100D80F2E70D7044
:104FD000F0E719F8041B8DF8001000208DF801008F
:104FE000EA46012003E059F804AB4FF0FF306107B7
:104FF0004FF0000102D40DE008F101018846B942EA
:105000000FDA8045F8DB1AF808100029F4D108E01F
:1050100008F1010188468142FADB1AF808100029DC
:10502000F6D105985B46A0EB080721463846179A4B
:1050300000F094FA284400EB080507E04DE029E170
:105040000DE01AF8010B5A4617999047B8F101087C
:10505000F7D25B4621463846179A13E142E00A220E
:105060000092C4F302524FF0000A022A08D059F805
:1050700004CB032A4FEAEC710AD00DE029E02AE0C4
:1050800009F1070121F00702F2E802C1914609E0A7
:105090000FFA8CFC4FEAEC71042A03D14FFA8CFC16
:1050A0004FEAEC71002907DA0A460021DCF1000C16
:1050B00061EB02012D2202E0220504D52B228DF89E
:1050C0000420012203E0E20701D02022F7E7904606
:1050D00059E00A2102E010220DE010214FF0000AF1
:1050E00000910BE010224FF0000A44F0040408275E
:1050F000009203E008224FF0000A0092C4F302522B
:10510000022A05D059F804CB0021032A08D009E06F
:1051100009F1070121F00702F2E802C1914605E01A
:105120001FFA8CFC042A01D10CF0FF0C4FF0000890
:10513000220728D5702806D0009B83F0100353EA7D
:105140000A0305D00EE040228DF80420012208E079
:105150005CEA010206D030228DF804208DF80500AB
:1051600002229046009B83F0080353EA0A030AD107
:105170005CEA010201D1620705D530228DF80420D6
:105180004FF001087F1E582804D034A003900EA8C9
:1051900002900DE036A0F9E753466046009AFBF70F
:1051A00049F884460398825C0298401E029002707F
:1051B0005CEA0100F0D1029806A9081A00F1200A61
:1051C000600702D524F4803400E00127574502DD52
:1051D000A7EB0A0000E0002000EB0A010090059810
:1051E0004144401A0590E00306D45B462146179AD5
:1051F000059800F0B3F90544002706E001A85A46D7
:10520000C05D179990476D1C7F1C4745F6DBE00396
:105210000CD55B462146179A059800F09FF9054486
:1052200004E030205A46179990476D1C0099481E9B
:1052300000900029F5DC08E0029802995A460078AF
:10524000491C0291179990476D1CBAF10001AAF10F
:10525000010AF1DC65E10000092801003031323338
:1052600034353637383961626364656600000000A2
:10527000303132333435363738394142434445468C
:105280000000000000F058F90544761C3078002832
:105290007FF4ECAD19B02846BDE8F08F620700D46A
:1052A000062709F1070222F0070CFCE80223E14679
:1052B00003F000485FEA080C02D00FF2702C0DE0FA
:1052C0005FEA045C02D50FF2682C07E05FEAC47C59
:1052D00002D00FF2602C01E0AFF2700C4FF0FF38FB
:1052E00023F00043CDF850C065280CD006DC4528DB
:1052F00009D046281DD047283DD13DE0662818D06A
:1053000067287ED138E00021112F01DB112000E059
:10531000781CCDE9000106A90EA8FFF7DDFCDDE948
:105320000F010E9A03910021009207F1010A0491E6
:105330004DE04FF000400097CDE9011006A90EA8FE
:10534000FFF7CAFCDDE90F0203920E9B11990022C0
:10535000DDF80CA00093049211B9791C00EB010A4E
:10536000B7EB0A0004D4C0F1FF3007F1010A049042
:10537000AAEB0700019044E0012F00DA0127002189
:10538000112F01DD112000E03846CDE9000106A90A
:105390000EA8FFF7A1FCDDE90F010E9A0391002191
:1053A00004910092BA4621070CD40399514500DAC2
:1053B0008A46BAF1010F05DD009AAAF10101515C9C
:1053C000302908D0B84202DA10F1040F06DA0121C0
:1053D000CDE9011015E0AAF10101E9E7002805DC9B
:1053E000049901440491AAEB000102E0411C5145DB
:1053F00000DD8A460499401A401C01904FF000409D
:105400000290200704D40198504501DBCDF80480B8
:1054100000208DF84F0002980DF14F07B0F1004FBA
:1054200025D02B200E9002984FF0020800280CDAAD
:10543000404202902D200E9007E00A210298FAF7D0
:1054400067FF3031029007F8011DB8F10001A8F1A3
:105450000108F2DC02980028EFD1791E0E9808703E
:10546000307800F0200040F0450007F8020D12A847
:10547000C01B00F107081498007800B1012000EB70
:105480000A01019801EBE07105984144401A401E61
:105490000590E00306D45B462146179A059800F074
:1054A0005DF805441498007818B15A46179990474A
:1054B0006D1CE00324D55B462146179A059800F041
:1054C0004DF805441CE00498002807DBDDE90301E2
:1054D000884203DD0098405C179901E0179930205D
:1054E0005A469047049805F10105401C0490019824
:1054F000401E019004D12E205A46179990476D1CEA
:10550000BAF10001AAF1010ADDDC05E017F8010B90
:105510005A46179990476D1CB8F10001A8F101088F
:10552000F4DC5B462146179A0598ABE62D00000097
:105530002B000000200000002DE9F041044600256A
:105540001E461746880404D405E039462020B0479B
:105550006D1C641EF9D52846BDE8F0812DE9F041A7
:10556000044600251E469046C80301D5302700E0BA
:105570002027880404D505E041463846B0476D1C15
:10558000641EF9D52846BDE8F0810A68531C0B60FB
:1055900010707047FEF778FBFEF74CFBFEF774FBCC
:1055A000FEF748FBFCF7B6F8FEF788FBFDF70EFCAC
:1055B000FDF7EEFBFDF7A0FCFDF788FBFDF75AFDBC
:1055C000FDF7B6FBFDF7EEFCFDF720FDFDF77EFBDA
:1055D000FDF750FD4648FEF7BFFF4648FCF754FF75
:1055E0004548FBF795FC4548FCF766FF4448FBF748
:1055F0001FFC444C00224FF400712046FCF776F863
:105600004FF48048204601224146FCF76FF83D4F99
:105610003D4E3E4D18373E4C207838B13448FEF7A9
:105620009BFFC820FBF77EFE00202070607820B131
:105630003748001DFEF7B4FBEEE7A06850B1012823
:1056400020D0022836D003284CD00428E4D1FEF71D
:1056500019FAE1E73E60002201212846FCF746F8EE
:10566000002228468021FCF741F8002241462846C6
:10567000FCF73CF8012228461146FCF737F8FEF704
:105680006BFAC9E73E60002201212846FCF72EF89C
:10569000002228468021FCF729F8002241462846AE
:1056A000FCF724F8012228468021FCF71FF8FEF7BA
:1056B00091FAB1E73E60002201212846FCF716F876
:1056C000002228468021FCF711F800224146284696
:1056D000FCF70CF8012241462846FCF707F8FEF7D4
:1056E000E9FD99E70A481030FEF7F8F994E7000061
:1056F0003C000020441500201414002084150020D4
:105700005C140020000802400000814000040240B8
:10571000000000202DE9F0430122244C8FB05502F7
:1057200020462946FBF7E2FF002229462046FBF7E8
:10573000DDFF0026A0464FF4807935460022494619
:105740004046FBF7D3FFFBF7D7FF441C45F10007AA
:10575000FBF7D2FF001B75EB0701F9D31448FBF7E9
:1057600020FA00EE100A684600EBC604B8EE400BC3
:1057700084ED000BBCEEC00B10EE100AFEF7D8F85B
:1057800094ED000BBCEEC00B10EE100AFEF718F9FA
:10579000012249464046FBF7A9FF761C072ECDDBC8
:1057A0006846FEF737FB0FB0BDE8F0830008024003
:1057B0005C14002000061016000610160000000001
:1057C00000000000010203040607080900000000B1
:1057D0000102030400000000000000000000B33FCD
:1057E000B2BE7D3A00002E40DFCF513800007E402F
:1057F000BF51FABA00E0A44019DAC3BA00E0C840C9
:10580000C2ED8AB90040EB40CD1F2CBA0010064112
:105810002AFFFABA00C01541DFCFD13700D02441AA
:105820009A97703A0050334189478E360040414183
:10583000E75B9D3800B04E41C00A98B900A05B41BB
:10584000558F943A00306841DA92C0BA00407441F2
:1058500062B3C63A0000803F00A0853F00908B3FB6
:1058600000C0913F0030983F00F09E3F00F0A53F00
:105870000050AD3F0000B53F0000BD3F0060C53F98
:105880000020CE3F0040D73F00C0E03F00C0EA3FCD
:105890000020F53F000000007D36AC397D3C3839F2
:1058A000EBDCF438320A7E39124C26399B6AED392A
:1058B000A4EE83397F661E39F6398A392B42653961
:1058C000A48211395B991F39C3EECD39DDE7C637A4
:1058D000A5A22F390000803FC3AA853FC2958B3F08
:1058E000D3C3913FF037983F32F59E3FD7FEA53F97
:1058F0003F58AD3FF304B53FA408BD3F2A67C53FFD
:105900008C24CE3FFD44D73FDFCCE03FC7C0EA3F09
:105910007D25F53F38590008000000203C000000BC
:10592000A04C0008745900083C0000206C1A0000CC
:10593000B04C000899F3FFFF00000000FF00920048
:105940000000000014000000AC46849547846D48B8
:10595000865048873A4887204988000001000000A7
:1059600010000000000000000024F400000000000F
:045970000000000033
:04000005080001F9F5
:00000001FF
